FI01061126228    474576CMM       131216000120131216050101P                                                                      
FI020819109953001301511922530013015119225000000000120131216050101                                                               
FI03020131213710000000000123805277301520131213214334466120131216000000000139500                      CC000000000N               
FI03020131213710000000000123805285081420131212N32439732920131216000000000139500                      CC000000000N               
FI0808191099500000000002000000000279000000000000000000                                                                          
FI09061126228    474576CMM       0000000000100000000002                                                                         