FI0101308881000130888100000000000000000000020040914123501P                                                                      
FI020804295927640000100055900000000000000000000000020040914123501                                                               
FI03020040105710000029407004016162088020040106008900608520040107000000000000071                      CC000000000N               
FI03020040105710000056156160426048088020040106008900608620040107000000000000071                      CC000000000N               
FI03020040105710000029407004016162088020040106008900608420040107000000000000071                      CC000000000N               
FI03020040105710000056156160426048088020040106008900610420040107000000000000071                      CC000000000N               
FI03020040105710000029407004016162088020040106008900610320040107000000000000071                      CC000000000N               
FI03020040105710000056156160426048088020040106008900610220040107000000000000071                      CC000000000N               
FI03020040105710000029407004016162088020040106008900611220040107000000000000071                      CC000000000N               
FI03020040105710000056156160426048088020040106008900611120040107000000000000071                      CC000000000N               
FI03020040105710000029407004016162088020040106008900607820040107000000000000071                      CC000000000N               
FI03020040105710000056156160426048088020040106008900608020040107000000000000071                      CC000000000N               
FI03020040105710000029407004016162088020040106008900609220040107000000000000071                      CC000000000N               
FI03020040105710000056156160426048088020040106008900609120040107000000000000071                      CC000000000N               
FI03020040301710000000000000000018088020040302008901805420040303000000000000100                      CC000000000N               
FI03020040601710000000000000000018088020040602008902053720040603000000000000100                      CC000000000N               
FI03020040601710000000000000000018088020040602008902053620040603000000000000100                      CC000000000N               
FI03020040628710000000000000000018762920040629027770000120040630000000000000168                      CC000000000N               
FI0302004062873                   762920040629027770000220040630000000000000268                      CC000000000N               
FI04073017629200406290277700002Bankernes EDB Central                                                                            
FI04073027629200406290277700002Absalonsvej 2                                                                                    
FI040730376292004062902777000027400  Herning                                                                                    
FI04173017629200406290277700002TEST TIA                                                                                         
FI08080429592000000000170000000000015880000000000000000000000000100000000001                                                    
FI090130888100013088810000000000000000000001000000000170000000000100000000001                                                   
  